{
  "contractName": "Rating",
  "abi": [
    {
      "constant": true,
      "inputs": [
        {
          "name": "",
          "type": "bytes32"
        }
      ],
      "name": "ratingsReceived",
      "outputs": [
        {
          "name": "",
          "type": "uint8"
        }
      ],
      "payable": false,
      "stateMutability": "view",
      "type": "function"
    },
    {
      "constant": true,
      "inputs": [
        {
          "name": "",
          "type": "uint256"
        }
      ],
      "name": "movieList",
      "outputs": [
        {
          "name": "",
          "type": "bytes32"
        }
      ],
      "payable": false,
      "stateMutability": "view",
      "type": "function"
    },
    {
      "inputs": [
        {
          "name": "movieNames",
          "type": "bytes32[]"
        }
      ],
      "payable": false,
      "stateMutability": "nonpayable",
      "type": "constructor"
    },
    {
      "constant": true,
      "inputs": [],
      "name": "getMovies",
      "outputs": [
        {
          "name": "",
          "type": "bytes32[]"
        }
      ],
      "payable": false,
      "stateMutability": "view",
      "type": "function"
    },
    {
      "constant": true,
      "inputs": [
        {
          "name": "movie",
          "type": "bytes32"
        }
      ],
      "name": "totalVotesFor",
      "outputs": [
        {
          "name": "",
          "type": "uint8"
        }
      ],
      "payable": false,
      "stateMutability": "view",
      "type": "function"
    },
    {
      "constant": false,
      "inputs": [
        {
          "name": "movie",
          "type": "bytes32"
        }
      ],
      "name": "voteForMovie",
      "outputs": [],
      "payable": false,
      "stateMutability": "nonpayable",
      "type": "function"
    }
  ],
  "bytecode": "0x608060405234801561001057600080fd5b5060405161041a38038061041a833981018060405281019080805182019291905050508060019080519060200190610049929190610050565b50506100c8565b828054828255906000526020600020908101928215610092579160200282015b82811115610091578251829060001916905591602001919060010190610070565b5b50905061009f91906100a3565b5090565b6100c591905b808211156100c15760008160009055506001016100a9565b5090565b90565b610343806100d76000396000f30060806040526004361061006d576000357c0100000000000000000000000000000000000000000000000000000000900463ffffffff1680632c53b406146100725780632f265cf7146100de5780635f4187b0146101295780636c9d63ab14610174578063bf58ae3d146101a5575b600080fd5b34801561007e57600080fd5b506100876101ee565b6040518080602001828103825283818151815260200191508051906020019060200280838360005b838110156100ca5780820151818401526020810190506100af565b505050509050019250505060405180910390f35b3480156100ea57600080fd5b5061010d600480360381019080803560001916906020019092919050505061025a565b604051808260ff1660ff16815260200191505060405180910390f35b34801561013557600080fd5b50610158600480360381019080803560001916906020019092919050505061028b565b604051808260ff1660ff16815260200191505060405180910390f35b34801561018057600080fd5b506101a360048036038101908080356000191690602001909291905050506102ab565b005b3480156101b157600080fd5b506101d0600480360381019080803590602001909291905050506102f4565b60405180826000191660001916815260200191505060405180910390f35b60608060008090505b600180549050811115156102525760018181548110151561021457fe5b9060005260206000200154828281518110151561022d57fe5b90602001906020020190600019169081600019168152505080806001019150506101f7565b819250505090565b6000806000836000191660001916815260200190815260200160002060009054906101000a900460ff169050919050565b60006020528060005260406000206000915054906101000a900460ff1681565b6001600080836000191660001916815260200190815260200160002060008282829054906101000a900460ff160192506101000a81548160ff021916908360ff16021790555050565b60018181548110151561030357fe5b9060005260206000200160009150905054815600a165627a7a723058207234c64e8851112ca595030744e1abdbf1acef21761057ede91d7c2d7127f0ba0029",
  "source": "pragma solidity ^0.4.17;\n\ncontract Rating {\n\n    mapping(bytes32 => uint8) public ratingsReceived;\n\n    bytes32[] public movieList;\n\n    constructor(bytes32[] movieNames) public {\n        movieList = movieNames;\n    }\n\n    function getMovies() view public returns (bytes32[]) {\n        bytes32[] memory list;\n        for (uint i = 0; i <= movieList.length; i++) {\n            list[i] = movieList[i];\n        }\n        return list;\n    }\n\n    function totalVotesFor(bytes32 movie) view public returns (uint8) {\n        return ratingsReceived[movie];\n    }\n\n    function voteForMovie(bytes32 movie) public {\n        ratingsReceived[movie] += 1;\n    }\n}",
  "sourcePath": "/Users/erinvincent/Documents/Projects/movieRatingApp/rating/contracts/Rating.sol",
  "compiler": {
    "name": "solc",
    "version": "0.4.24+commit.e67f0147.Emscripten.clang"
  },
  "schemaVersion": "2.0.1",
  "updatedAt": "2018-07-03T23:33:27.727Z"
}