{
  "contractName": "RatingContract",
  "abi": [
    {
      "constant": true,
      "inputs": [
        {
          "name": "",
          "type": "bytes32"
        }
      ],
      "name": "ratingsReceived",
      "outputs": [
        {
          "name": "",
          "type": "uint8"
        }
      ],
      "payable": false,
      "stateMutability": "view",
      "type": "function"
    },
    {
      "constant": true,
      "inputs": [
        {
          "name": "",
          "type": "uint256"
        }
      ],
      "name": "movieList",
      "outputs": [
        {
          "name": "",
          "type": "bytes32"
        }
      ],
      "payable": false,
      "stateMutability": "view",
      "type": "function"
    },
    {
      "constant": false,
      "inputs": [
        {
          "name": "movieNames",
          "type": "bytes32[]"
        }
      ],
      "name": "Rating",
      "outputs": [],
      "payable": false,
      "stateMutability": "nonpayable",
      "type": "function"
    },
    {
      "constant": true,
      "inputs": [
        {
          "name": "movie",
          "type": "bytes32"
        }
      ],
      "name": "totalVotesFor",
      "outputs": [
        {
          "name": "",
          "type": "uint8"
        }
      ],
      "payable": false,
      "stateMutability": "view",
      "type": "function"
    },
    {
      "constant": false,
      "inputs": [
        {
          "name": "movie",
          "type": "bytes32"
        }
      ],
      "name": "voteForMovie",
      "outputs": [],
      "payable": false,
      "stateMutability": "nonpayable",
      "type": "function"
    }
  ],
  "bytecode": "0x608060405234801561001057600080fd5b50610363806100206000396000f30060806040526004361061006d576000357c0100000000000000000000000000000000000000000000000000000000900463ffffffff1680630ce5c277146100725780632f265cf7146100d85780635f4187b0146101235780636c9d63ab1461016e578063bf58ae3d1461019f575b600080fd5b34801561007e57600080fd5b506100d6600480360381019080803590602001908201803590602001908080602002602001604051908101604052809392919081815260200183836020028082843782019150505050505091929192905050506101e8565b005b3480156100e457600080fd5b506101076004803603810190808035600019169060200190929190505050610202565b604051808260ff1660ff16815260200191505060405180910390f35b34801561012f57600080fd5b506101526004803603810190808035600019169060200190929190505050610233565b604051808260ff1660ff16815260200191505060405180910390f35b34801561017a57600080fd5b5061019d6004803603810190808035600019169060200190929190505050610253565b005b3480156101ab57600080fd5b506101ca6004803603810190808035906020019092919050505061029c565b60405180826000191660001916815260200191505060405180910390f35b80600190805190602001906101fe9291906102bf565b5050565b6000806000836000191660001916815260200190815260200160002060009054906101000a900460ff169050919050565b60006020528060005260406000206000915054906101000a900460ff1681565b6001600080836000191660001916815260200190815260200160002060008282829054906101000a900460ff160192506101000a81548160ff021916908360ff16021790555050565b6001818154811015156102ab57fe5b906000526020600020016000915090505481565b828054828255906000526020600020908101928215610301579160200282015b828111156103005782518290600019169055916020019190600101906102df565b5b50905061030e9190610312565b5090565b61033491905b80821115610330576000816000905550600101610318565b5090565b905600a165627a7a72305820d4954fc3e15b4edaae4aed2da43ef75fa167ce609498c6ddc2ce3da89ecc28e10029",
  "source": "pragma solidity ^0.4.17;\n\ncontract RatingContract {\n\n    mapping(bytes32 => uint8) public ratingsReceived;\n\n    bytes32[] public movieList;\n\n    function Rating(bytes32[] movieNames) public {\n        movieList = movieNames;\n    }\n\n    function totalVotesFor(bytes32 movie) view public returns (uint8) {\n        return ratingsReceived[movie];\n    }\n\n    function voteForMovie(bytes32 movie) public  {\n        ratingsReceived[movie] += 1;\n    }\n}",
  "sourcePath": "/Users/erinvincent/Documents/Projects/movieRatingApp/rating/contracts/Rating.sol",
  "compiler": {
    "name": "solc",
    "version": "0.4.24+commit.e67f0147.Emscripten.clang"
  },
  "schemaVersion": "2.0.1",
  "updatedAt": "2018-06-27T22:59:20.633Z"
}